{
  "contractName": "Factory",
  "abi": [
    {
      "constant": false,
      "inputs": [
        {
          "name": "a",
          "type": "address"
        },
        {
          "name": "x",
          "type": "uint256"
        }
      ],
      "name": "set",
      "outputs": [],
      "payable": false,
      "stateMutability": "nonpayable",
      "type": "function"
    },
    {
      "constant": false,
      "inputs": [],
      "name": "newContract",
      "outputs": [
        {
          "name": "newAddress",
          "type": "address"
        }
      ],
      "payable": false,
      "stateMutability": "nonpayable",
      "type": "function"
    },
    {
      "constant": true,
      "inputs": [
        {
          "name": "",
          "type": "uint256"
        }
      ],
      "name": "contractArray",
      "outputs": [
        {
          "name": "",
          "type": "address"
        }
      ],
      "payable": false,
      "stateMutability": "view",
      "type": "function"
    },
    {
      "constant": false,
      "inputs": [
        {
          "name": "a",
          "type": "address"
        }
      ],
      "name": "get",
      "outputs": [
        {
          "name": "val",
          "type": "uint256"
        }
      ],
      "payable": false,
      "stateMutability": "nonpayable",
      "type": "function"
    },
    {
      "inputs": [],
      "payable": false,
      "stateMutability": "nonpayable",
      "type": "constructor"
    }
  ],
  "bytecode": "0x6060604052341561000f57600080fd5b6105c68061001e6000396000f300606060405260043610610062576000357c0100000000000000000000000000000000000000000000000000000000900463ffffffff1680633825d828146100675780634313b531146100a95780636ec31add146100fe578063c2bc2efc14610161575b600080fd5b341561007257600080fd5b6100a7600480803573ffffffffffffffffffffffffffffffffffffffff169060200190919080359060200190919050506101ae565b005b34156100b457600080fd5b6100bc61023a565b604051808273ffffffffffffffffffffffffffffffffffffffff1673ffffffffffffffffffffffffffffffffffffffff16815260200191505060405180910390f35b341561010957600080fd5b61011f6004808035906020019091905050610376565b604051808273ffffffffffffffffffffffffffffffffffffffff1673ffffffffffffffffffffffffffffffffffffffff16815260200191505060405180910390f35b341561016c57600080fd5b610198600480803573ffffffffffffffffffffffffffffffffffffffff169060200190919050506103b5565b6040518082815260200191505060405180910390f35b60008290508073ffffffffffffffffffffffffffffffffffffffff166360fe47b1836040518263ffffffff167c010000000000000000000000000000000000000000000000000000000002815260040180828152602001915050600060405180830381600087803b151561022157600080fd5b6102c65a03f1151561023257600080fd5b505050505050565b600080600061024761044a565b604051809103906000f080151561025d57600080fd5b915081604051808273ffffffffffffffffffffffffffffffffffffffff1673ffffffffffffffffffffffffffffffffffffffff166c010000000000000000000000000281526014019150506040518091039020905081600080836000191660001916815260200190815260200160002060006101000a81548173ffffffffffffffffffffffffffffffffffffffff021916908373ffffffffffffffffffffffffffffffffffffffff1602179055506001805480600101828161031f9190610459565b9160005260206000209001600084909190916101000a81548173ffffffffffffffffffffffffffffffffffffffff021916908373ffffffffffffffffffffffffffffffffffffffff16021790555050819250505090565b60018181548110151561038557fe5b90600052602060002090016000915054906101000a900473ffffffffffffffffffffffffffffffffffffffff1681565b6000808290508073ffffffffffffffffffffffffffffffffffffffff16636d4ce63c6000604051602001526040518163ffffffff167c0100000000000000000000000000000000000000000000000000000000028152600401602060405180830381600087803b151561042757600080fd5b6102c65a03f1151561043857600080fd5b50505060405180519050915050919050565b60405160f0806104ab83390190565b8154818355818115116104805781836000526020600020918201910161047f9190610485565b5b505050565b6104a791905b808211156104a357600081600090555060010161048b565b5090565b9056006060604052341561000f57600080fd5b60d38061001d6000396000f3006060604052600436106049576000357c0100000000000000000000000000000000000000000000000000000000900463ffffffff16806360fe47b114604e5780636d4ce63c14606e575b600080fd5b3415605857600080fd5b606c60048080359060200190919050506094565b005b3415607857600080fd5b607e609e565b6040518082815260200191505060405180910390f35b8060008190555050565b600080549050905600a165627a7a723058205c7cf78e2b2d1febd15010da9c6b0cd596aae469e5658dfd4fc493662d4dfd2e0029a165627a7a72305820d81a7dca4682e347a7e6f1e22b8d353c957bd298bee4bf80d8800fd0f23076cd0029",
  "source": "pragma solidity ^0.4.18;\n\nimport \"./SimpleStorage.sol\";\n\ncontract Factory {\n\n\tmapping(bytes32=>address) contracts;\n\taddress[] public contractArray;\n\n\tfunction Factory() {\n\t  // constructor\n    }\n\n    function newContract() public returns(address newAddress) {\n\t\tSimpleStorage s = new SimpleStorage();\n\t\tbytes32 id = keccak256(s);\n\t\tcontracts[id] = s;\n\t\tcontractArray.push(s);\n\t\treturn address(s);\n\t}\n\n\tfunction get(address a) public returns(uint val) {\n\t\tSimpleStorage s = SimpleStorage(a);\n\t\treturn s.get();\n\t}\n\n\tfunction set(address a, uint x) public {\n\t\tSimpleStorage s = SimpleStorage(a);\n\t\ts.set(x);\n\t}\n}",
  "sourcePath": "/Users/pranavpillai/Documents/GitHub/tunechainz/contracts/Factory.sol",
  "compiler": {
    "name": "solc",
    "version": "0.4.18+commit.9cf6e910.Emscripten.clang"
  },
  "schemaVersion": "1.0.1",
  "updatedAt": "2018-01-21T10:29:12.916Z"
}