{
  "contractName": "Song",
  "abi": [
    {
      "constant": false,
      "inputs": [],
      "name": "buySong",
      "outputs": [
        {
          "name": "success",
          "type": "bool"
        }
      ],
      "payable": true,
      "stateMutability": "payable",
      "type": "function"
    },
    {
      "constant": false,
      "inputs": [
        {
          "name": "x",
          "type": "uint256"
        }
      ],
      "name": "cashOut",
      "outputs": [
        {
          "name": "remaining",
          "type": "uint256"
        }
      ],
      "payable": true,
      "stateMutability": "payable",
      "type": "function"
    },
    {
      "constant": false,
      "inputs": [],
      "name": "cashLeft",
      "outputs": [
        {
          "name": "remaining",
          "type": "uint256"
        }
      ],
      "payable": true,
      "stateMutability": "payable",
      "type": "function"
    },
    {
      "constant": false,
      "inputs": [],
      "name": "numBuys",
      "outputs": [
        {
          "name": "num",
          "type": "uint256"
        }
      ],
      "payable": false,
      "stateMutability": "nonpayable",
      "type": "function"
    },
    {
      "constant": false,
      "inputs": [],
      "name": "listen",
      "outputs": [
        {
          "name": "paidForSong",
          "type": "bool"
        }
      ],
      "payable": false,
      "stateMutability": "nonpayable",
      "type": "function"
    },
    {
      "constant": false,
      "inputs": [],
      "name": "numListens",
      "outputs": [
        {
          "name": "num",
          "type": "uint256"
        }
      ],
      "payable": false,
      "stateMutability": "nonpayable",
      "type": "function"
    },
    {
      "inputs": [],
      "payable": false,
      "stateMutability": "nonpayable",
      "type": "constructor"
    },
    {
      "anonymous": false,
      "inputs": [
        {
          "indexed": false,
          "name": "_address",
          "type": "address"
        }
      ],
      "name": "newSong",
      "type": "event"
    }
  ],
  "bytecode": "0x6060604052341561000f57600080fd5b336000806101000a81548173ffffffffffffffffffffffffffffffffffffffff021916908373ffffffffffffffffffffffffffffffffffffffff160217905550600060028190555060006003819055507f86326162a119db4aa077bd253d9a116a7ff9ad573e29eb8f510f31e540ad7eba30604051808273ffffffffffffffffffffffffffffffffffffffff1673ffffffffffffffffffffffffffffffffffffffff16815260200191505060405180910390a161046c806100d16000396000f300606060405260043610610078576000357c0100000000000000000000000000000000000000000000000000000000900463ffffffff1680635a22aecc1461007d5780635c7b79f51461009f5780636d2e952a146100cb578063b9a72d42146100e9578063d68ab7f114610112578063e464ad571461013f575b600080fd5b610085610168565b604051808215151515815260200191505060405180910390f35b6100b5600480803590602001909190505061024e565b6040518082815260200191505060405180910390f35b6100d3610332565b6040518082815260200191505060405180910390f35b34156100f457600080fd5b6100fc6103b3565b6040518082815260200191505060405180910390f35b341561011d57600080fd5b6101256103bd565b604051808215151515815260200191505060405180910390f35b341561014a57600080fd5b610152610436565b6040518082815260200191505060405180910390f35b600066038d7ea4c68000341015151561018057600080fd5b60001515600160003373ffffffffffffffffffffffffffffffffffffffff1673ffffffffffffffffffffffffffffffffffffffff16815260200190815260200160002060009054906101000a900460ff1615151415156101df57600080fd5b60018060003373ffffffffffffffffffffffffffffffffffffffff1673ffffffffffffffffffffffffffffffffffffffff16815260200190815260200160002060006101000a81548160ff02191690831515021790555060016003600082825401925050819055506001905090565b60008060009054906101000a900473ffffffffffffffffffffffffffffffffffffffff168073ffffffffffffffffffffffffffffffffffffffff163373ffffffffffffffffffffffffffffffffffffffff161415156102ac57600080fd5b823073ffffffffffffffffffffffffffffffffffffffff1631101515156102d257600080fd5b3373ffffffffffffffffffffffffffffffffffffffff166108fc849081150290604051600060405180830381858888f19350505050151561031257600080fd5b3073ffffffffffffffffffffffffffffffffffffffff1631915050919050565b6000806000809054906101000a900473ffffffffffffffffffffffffffffffffffffffff168073ffffffffffffffffffffffffffffffffffffffff163373ffffffffffffffffffffffffffffffffffffffff1614151561039157600080fd5b3073ffffffffffffffffffffffffffffffffffffffff16319150819250505090565b6000600354905090565b600060011515600160003373ffffffffffffffffffffffffffffffffffffffff1673ffffffffffffffffffffffffffffffffffffffff16815260200190815260200160002060009054906101000a900460ff16151514151561041e57600080fd5b60016002600082825401925050819055506001905090565b60006002549050905600a165627a7a7230582052685a12fd12b56cfd01afe9637916e7d2c81f66e658e6918ec021af72d89be40029",
  "source": "pragma solidity ^0.4.4;\n\ncontract Song {\n\n\taddress owner;\n\tmapping(address=>bool) listeners;\n\tuint listens;\n\tuint buys;\n\n\tevent newSong(address _address);\n\n\tmodifier onlyBy(address _account) {\n\t\trequire(msg.sender == _account);\n\t\t_;\n\t}\t\n\n\tfunction Song() public {\n\t// constructor\n\t\towner = msg.sender;\n\t\tlistens = 0;\n\t\tbuys = 0;\n\t\tnewSong(this);\n\t}\n\n\tfunction buySong() public payable returns (bool success) {\n\t\trequire(msg.value >= 1000000000000000);\n\t\trequire(listeners[msg.sender] == false);\n\t\tlisteners[msg.sender] = true;\n\t\tbuys += 1;\n\t\treturn true;\n\t}\n\n\tfunction listen() public returns (bool paidForSong) {\n\t\trequire(listeners[msg.sender] == true);\n\t\tlistens += 1;\n\t\treturn true;\n\t}\n\n\tfunction cashLeft() public payable onlyBy(owner) returns (uint remaining) {\n\t\tuint x = this.balance;\n\t\treturn x;\n\t}\n\n\tfunction numListens() public returns (uint num) {\n\t\treturn listens;\n\t}\n\n\tfunction numBuys() public returns (uint num) {\n\t\treturn buys;\n\t}\n\n\tfunction cashOut(uint x) public payable onlyBy(owner) returns (uint remaining) {\n\t\trequire(this.balance >= x);\n\t\tmsg.sender.transfer(x);\n\t\treturn this.balance;\n\t}\n}\n",
  "sourcePath": "/Users/pranavpillai/Documents/GitHub/tunechainz/contracts/Song.sol",
  "compiler": {
    "name": "solc",
    "version": "0.4.18+commit.9cf6e910.Emscripten.clang"
  },
  "schemaVersion": "1.0.1",
  "updatedAt": "2018-01-21T04:39:55.134Z"
}